:100000000C942A000C9447000C9447000C94470071
:100010000C9447000C9447000C9447000C94470044
:100020000C9447000C9438060C9447000C9447003D
:100030000C949B040C9481070C9447000C9447008B
:100040000C9447000C9447000C9447000C94470014
:100050000C94470011241FBECFE5D8E0DEBFCDBF12
:1000600010E0A0E6B0E0ECE0F0E102C005900D92F7
:10007000A637B107D9F720E0A6E7B0E001C01D928E
:10008000AE3FB207E1F70E949C020C9404080C9466
:100090000000CF93DF931F92CDB7DEB789838981AC
:1000A000882F90E080329105C1F0813291051CF4D7
:1000B000409741F033C080349105D1F080389105EC
:1000C00011F12CC04FEF60E181E00E94E90240E0B5
:1000D00060E181E00E94950321C04FEF60E281E082
:1000E0000E94E90240E060E281E00E94950316C0B0
:1000F0004FEF60E481E00E94E90240E060E481E0CB
:100100000E9495030BC04FEF60E881E00E94E90276
:1001100040E060E881E00E949503000000000F903D
:10012000DF91CF910895CF93DF931F92CDB7DEB7C4
:1001300089838981882F90E08032910591F0813206
:1001400091051CF4409741F01BC08034910571F07B
:100150008038910581F014C060E181E00E94340490
:100160000FC060E281E00E9434040AC060E481E0D4
:100170000E94340405C060E881E00E94340400005D
:1001800000000F90DF91CF910895CF93DF9300D0BF
:100190001F92CDB7DEB79B838A83198281E4809357
:1001A000630010927A0010927B008A819B81892BD8
:1001B00041F180916400882F90E08130910531F009
:1001C0008230910589F0892B41F01DC08A819B8185
:1001D000909366008093650016C08A819B819093FE
:1001E0006800809367000FC08A819B8190936600AE
:1001F000809365008A819B8190936800809367005B
:1002000002C089E0898380918200882F90E081304C
:10021000910569F08230910561F0892B09F00AC0DF
:100220000E94720687E892E00E946E0703C00000F9
:1002300001C0000089810F900F900F90DF91CF9146
:100240000895CF93DF9300D000D01F92CDB7DEB7D3
:100250009B838A837D836C83198280917A008823B3
:10026000F9F48A819B81892BC1F08A819B819093CB
:100270007D0080937C008C819D8190937F00809392
:100280007E001092800010927700109276001092FB
:10029000810081E08093620005C088E0898302C00C
:1002A00083E0898389810F900F900F900F900F90BA
:1002B000DF91CF910895CF93DF931F92CDB7DEB733
:1002C000198280917A00813009F0DDC08091600050
:1002D000882309F0D8C081E080936000809181007C
:1002E000882F90E08130910551F1823091051CF406
:1002F000892B49F0C8C08230910509F476C0039774
:1003000009F49FC0C0C080917C0090917D00FC01E9
:10031000908180916300981769F4809176009091A4
:1003200077000196909377008093760081E0809328
:100330008100A9C08AE089830E944802A4C08091FC
:1003400062008130D1F480917C0090917D00019613
:10035000FC018081882F90E0909379008093780051
:10036000809176009091770001969093770080932A
:10037000760082E08093620083C0809162008230C8
:1003800009F07EC080917C0090917D000296FC0176
:100390008081882F90E0982F88279C018091780099
:1003A00090917900822B932B909379008093780021
:1003B00080917600909177000196909377008093DA
:1003C000760020917E0030917F008091780090919E
:1003D00079002817390720F082E08093810050C00F
:1003E00086E089830E9448024BC0409180002091A2
:1003F0007C0030917D008091760090917700820F93
:10040000931FFC018081840F80938000809176008F
:100410009091770001969093770080937600809179
:100420007600909177009C012E5F3F4F80917E0077
:1004300090917F002817390729F583E08093810088
:1004400021C04091800020917C0030917D008091FE
:10045000760090917700820F931FFC0180814817EE
:1004600049F48091650090916600FC010995109215
:100470007A0009C087E089830E944802000003C017
:10048000000001C0000089810F90DF91CF91089595
:10049000CF93DF931F92CDB7DEB781E089831092AF
:1004A00077001092760010927900109278001092E6
:1004B0007A0010927B0010927F0010927E001092C2
:1004C0007D0010927C00109280001092810081E0EB
:1004D0008093600081E08093610081E080936200FE
:1004E00080918200882F90E08130910531F0823038
:1004F000910529F0892B29F005C0000003C00000F8
:1005000001C0000089810F90DF91CF910895CF93B2
:10051000DF93CDB7DEB7109261000000DF91CF917D
:100520000895CF93DF93CDB7DEB780E10E949300AB
:100530000000DF91CF910895CF93DF93CDB7DEB761
:1005400080E10E94490081E992E00E94C5000E947A
:100550007F0464E670E083E890E00E9421010E943D
:100560005B01FDCFCF93DF9300D0CDB7DEB789839A
:100570006A838981882F90E08130910591F08230E3
:1005800091051CF4892B39F01EC08230910579F059
:10059000039799F018C08BE390E02A81FC01208337
:1005A00012C088E390E02A81FC0120830CC085E31F
:1005B00090E02A81FC01208306C082E390E02A813A
:1005C000FC012083000000000F900F90DF91CF917D
:1005D0000895CF93DF9300D01F92CDB7DEB7898304
:1005E0006A834B838981882F90E08130910581F166
:1005F000823091051CF4892B49F090C0823091051E
:1006000009F448C0039709F467C088C08B81882F1C
:1006100090E0009721F08F3F910571F07FC08AE351
:1006200090E02AE330E0F9012081322F2A812095E1
:100630002323FC0120830BC08AE390E02AE330E00F
:10064000F90130812A81232BFC012083000066C040
:100650008B81882F90E0009721F08F3F910571F0FA
:100660005DC087E390E027E330E0F9012081322F7D
:100670002A8120952323FC0120830BC087E390E08F
:1006800027E330E0F90130812A81232BFC0120830C
:10069000000044C08B81882F90E0009721F08F3FAD
:1006A000910571F03BC084E390E024E330E0F90170
:1006B0002081322F2A8120952323FC0120830BC027
:1006C00084E390E024E330E0F90130812A81232B98
:1006D000FC012083000022C08B81882F90E00097CE
:1006E00021F08F3F910571F018C081E390E021E384
:1006F00030E0F9012081322F2A8120952323FC014B
:1007000020830BC081E390E021E330E0F9013081E8
:100710002A81232BFC0120830000000000000F90A1
:100720000F900F90DF91CF910895CF93DF9300D07A
:100730001F92CDB7DEB789836A834B838B81882F65
:1007400090E0009709F442C0019709F086C08981C2
:10075000882F90E081309105B9F0823091051CF42A
:10076000892B39F07AC082309105C9F0039711F1D5
:1007700074C08BE390E02BE330E0F90130812A81F3
:10078000232BFC01208321C088E390E028E330E0A4
:10079000F90130812A81232BFC01208316C085E3D7
:1007A00090E025E330E0F90130812A81232BFC0120
:1007B00020830BC082E390E022E330E0F901308136
:1007C0002A81232BFC012083000047C08981882FC8
:1007D00090E081309105C9F0823091051CF4892B9D
:1007E00039F03AC082309105E9F0039741F134C005
:1007F0008BE390E02BE330E0F9012081322F2A8156
:1008000020952323FC01208327C088E390E028E380
:1008100030E0F9012081322F2A8120952323FC0129
:1008200020831AC085E390E025E330E0F9012081C0
:10083000322F2A8120952323FC0120830DC082E3DF
:1008400090E022E330E0F9012081322F2A812095C7
:100850002323FC0120830000000000000F900F9074
:100860000F90DF91CF910895CF93DF9300D0CDB754
:10087000DEB789836A838981882F90E08130910572
:10088000B9F0823091051CF4892B39F032C08230E6
:100890009105C9F0039711F12CC08BE390E02BE395
:1008A00030E0F90130812A812327FC01208321C017
:1008B00088E390E028E330E0F90130812A812327A2
:1008C000FC01208316C085E390E025E330E0F901C8
:1008D00030812A812327FC0120830BC082E390E032
:1008E00022E330E0F90130812A812327FC012083B3
:1008F000000000000F900F90DF91CF910895CF93EB
:10090000DF93CDB7DEB78FE590E02FE530E0F9015A
:1009100020812068FC0120830000DF91CF910895A1
:10092000CF93DF93CDB7DEB78FE290E0FC018081FB
:10093000DF91CF9108951F920F9200905F000F9268
:1009400011242F933F934F935F936F937F938F93D4
:100950009F93AF93BF93EF93FF93CF93DF93CDB765
:10096000DEB70E9490048093ED008091ED00682F27
:1009700080E00E94B2028091EB009091EC00892B04
:1009800051F48091ED008093F60081E090E0909327
:10099000EC008093EB008091ED00882F90E0A0E0C8
:1009A000B0E08093E7009093E800A093E900B09353
:1009B000EA000000DF91CF91FF91EF91BF91AF91DD
:1009C0009F918F917F916F915F914F913F912F9167
:1009D0000F9000925F000F901F901895CF93DF93B8
:1009E000CDB7DEB72D970FB6F894DEBF0FBECDBFE3
:1009F00089874A875B876C877D8719821A821B8269
:100A00001C828985882F90E08130910509F461C0AE
:100A10008230910509F4BDC0892B09F014C1809181
:100A2000FA009091FB00CC01A0E0B0E09C01AD0188
:100A300060E472E48FE090E00E94B807DC01CB0133
:100A40002091EE003091EF004091F0005091F100C4
:100A5000BC01CD010E94C807DA01C9019C01AD01AA
:100A60008A859B85AC85BD85BC01CD010E94C807E8
:100A7000DA01C9018D839E83AF83B8878D819E8102
:100A8000AF81B88581309140A105B10528F0198268
:100A90001A821B821C82DCC08D819E8120E031E0A5
:100AA000A901481B590BCA019093F3008093F200EF
:100AB00082E590E02091F2003091F300FC01208368
:100AC00081E090E0A0E0B0E089839A83AB83BC83AF
:100AD000BFC08091FC009091FD00CC01A0E0B0E08F
:100AE0009C01AD0160E472E48FE090E00E94B807E1
:100AF000DC01CB012091EE003091EF004091F0003D
:100B00005091F100BC01CD010E94C807DA01C90172
:100B10009C01AD018A859B85AC85BD85BC01CD015D
:100B20000E94C807DA01C9018D839E83AF83B8870D
:100B30008D819E81AF81B8850197A140B10528F0D4
:100B400019821A821B821C8283C08D819E8191959D
:100B5000819591099093F3008093F2008DE490E0E9
:100B60002091F2003091F300232F3327FC012083E2
:100B70008CE490E02091F2003091F300FC0120839E
:100B800081E090E0A0E0B0E089839A83AB83BC83EE
:100B90005FC08091F8009091F900CC01A0E0B0E036
:100BA0009C01AD0160E472E48FE090E00E94B80720
:100BB000DC01CB012091EE003091EF004091F0007C
:100BC0005091F100BC01CD010E94C807DA01C901B2
:100BD0009C01AD018A859B85AC85BD85BC01CD019D
:100BE0000E94C807DA01C9018D839E83AF83B8874D
:100BF0008D819E81AF81B88581309140A105B1057D
:100C000028F019821A821B821C8222C08D819E814B
:100C100020E031E0A901481B590BCA019093F30071
:100C20008093F20084E490E02091F2003091F30090
:100C3000FC01208381E090E0A0E0B0E089839A830A
:100C4000AB83BC8305C019821A821B821C82000000
:100C50008A859B859093F3008093F20089812D967D
:100C60000FB6F894DEBF0FBECDBFDF91CF910895D0
:100C70001F920F9200905F000F9211242F933F93C9
:100C80004F935F936F937F938F939F93AF93BF9394
:100C9000EF93FF93CF93DF93CDB7DEB781E08093DF
:100CA000F7008091F2009091F300CC01A0E0B0E059
:100CB000AC01BD0181E00E94EE040000DF91CF9104
:100CC000FF91EF91BF91AF919F918F917F916F9124
:100CD0005F914F913F912F910F9000925F000F9085
:100CE0001F901895EF92FF920F931F93CF93DF936E
:100CF00000D000D0CDB7DEB781E0898380E88A8359
:100D000020917200309173004091740050917500F1
:100D10008091690090916A00A0916B00B0916C0085
:100D2000880F991FAA1FBB1F880F991FAA1FBB1FDF
:100D3000880F991FAA1FBB1F880F991FAA1FBB1FCF
:100D40007C018D01CA01B901A80197010E94C80761
:100D5000DA01C90101979C838B838A8180688A8329
:100D60008A8182608A838A8184608A838AE290E0B1
:100D70002AE230E0F90120812B7FFC012083809161
:100D80006D00882F90E0009761F00197A1F48AE24E
:100D900090E02AE230E0F90120812061FC0120830B
:100DA0000CC08AE290E02AE230E0F90120812F7E37
:100DB000FC01208302C01982000080916E00882F00
:100DC00090E0009761F00197A1F48AE290E02AE2B6
:100DD00030E0F90120812860FC0120830CC08AE208
:100DE00090E02AE230E0F9012081277FFC01208396
:100DF00002C01982000080916F00882F90E081303E
:100E0000910561F08230910581F0892BA9F48A81E6
:100E10008F7E8A838A818F7D8A8310C08A818F7EAC
:100E20008A838A8180628A8309C08A8180618A83F9
:100E30008A8180628A8302C01982000080917000DA
:100E4000882F90E08130910519F0029729F008C0B1
:100E50008A81877F8A8306C08A8188608A8302C0EC
:100E60001982000080917100882F90E0009761F056
:100E70000197A1F48AE290E02AE230E0F9012081B2
:100E80002068FC0120830CC08AE290E02AE230E076
:100E9000F90120812F77FC01208302C01982000014
:100EA00080E490E02A81FC01208389E290E02B819C
:100EB000FC01208380E490E02B813C81232F3327A9
:100EC000FC01208389810F900F900F900F90DF918C
:100ED000CF911F910F91FF90EF900895CF93DF93E3
:100EE00000D0CDB7DEB79A83898389819A819093A8
:100EF000F5008093F40000000F900F90DF91CF91E8
:100F000008951F920F9200905F000F9211242F936B
:100F10003F934F935F936F937F938F939F93AF9381
:100F2000BF93EF93FF93CF93DF93CDB7DEB780915D
:100F3000F4009091F500892B31F08091F4009091AC
:100F4000F500FC0109950000DF91CF91FF91EF9131
:100F5000BF91AF919F918F917F916F915F914F91D1
:100F60003F912F910F9000925F000F901F90189566
:100F7000DB018F939F930E94EA07BF91AF91A29FDD
:100F8000800D911DA39F900DB29F900D1124089587
:100F9000A1E21A2EAA1BBB1BFD010DC0AA1FBB1F7D
:100FA000EE1FFF1FA217B307E407F50720F0A21BEF
:100FB000B30BE40BF50B661F771F881F991F1A945C
:100FC00069F760957095809590959B01AC01BD0186
:100FD000CF0108950E94F507A59F900DB49F900D35
:100FE000A49F800D911D11240895A29FB001B39F6D
:100FF000C001A39F700D811D1124911DB29F700D22
:0C100000811D1124911D0895F894FFCF6C
:10100C0001010141010000000080250000010100E8
:06101C00010000127A0041
:00000001FF
