S010000042434D5F50726F6A2E7372656348
S11300000C942A000C9447000C9447000C9447006D
S11300100C9447000C9447000C9447000C94470040
S11300200C9447000C942D020C9447000C94470048
S11300300C9490000C9467020C9447000C944700B5
S11300400C9447000C9447000C9447000C94470010
S11300500C94470011241FBECFE5D8E0DEBFCDBF0E
S113006010E0A0E6B0E0E8EDF5E002C005900D92E6
S1130070A036B107D9F720E0A0E6B0E001C01D9298
S1130080A737B207E1F70E9449000C94EA020C94E6
S11300900000CF93DF93CDB7DEB7FFCFCF93DF93CD
S11300A000D0CDB7DEB789836A838981882F90E039
S11300B08130910591F0823091051CF4892B39F03F
S11300C01EC08230910579F0039799F018C08BE334
S11300D090E02A81FC01208312C088E390E02A8109
S11300E0FC0120830CC085E390E02A81FC0120837D
S11300F006C082E390E02A81FC0120830000000016
S11301000F900F90DF91CF910895CF93DF93CDB7E8
S1130110DEB78FE290E0FC018081DF91CF910895FA
S11301201F920F9200905F000F9211242F933F9320
S11301304F935F936F937F938F939F93AF93BF93EB
S1130140EF93FF93CF93DF93CDB7DEB70E94850083
S11301508093660080916600682F80E00E944E00C4
S11301608091640090916500892B51F48091660020
S113017080936F0081E090E0909365008093640029
S113018080916600882F90E0A0E0B0E0809360004A
S113019090936100A0936200B09363000000DF912C
S11301A0CF91FF91EF91BF91AF919F918F917F91EB
S11301B06F915F914F913F912F910F9000925F004B
S11301C00F901F901895CF93DF93CDB7DEB72D977F
S11301D00FB6F894DEBF0FBECDBF89874A875B8711
S11301E06C877D8719821A821B821C828985882FDD
S11301F090E08130910509F461C08230910509F4E1
S1130200BDC0892B09F014C18091730090917400D2
S1130210CC01A0E0B0E09C01AD0160E472E48FE0A9
S113022090E00E949E02DC01CB0120916700309196
S113023068004091690050916A00BC01CD010E94A0
S1130240AE02DA01C9019C01AD018A859B85AC85AA
S1130250BD85BC01CD010E94AE02DA01C9018D83C6
S11302609E83AF83B8878D819E81AF81B8858130AD
S11302709140A105B10528F019821A821B821C82C3
S1130280DCC08D819E8120E031E0A901481B590B1F
S1130290CA0190936C0080936B0082E590E02091FA
S11302A06B0030916C00FC01208381E090E0A0E0C1
S11302B0B0E089839A83AB83BC83BFC0809175000F
S11302C090917600CC01A0E0B0E09C01AD0160E427
S11302D072E48FE090E00E949E02DC01CB01209149
S11302E06700309168004091690050916A00BC0138
S11302F0CD010E94AE02DA01C9019C01AD018A85DB
S11303009B85AC85BD85BC01CD010E94AE02DA019E
S1130310C9018D839E83AF83B8878D819E81AF8110
S1130320B8850197A140B10528F019821A821B8271
S11303301C8283C08D819E819195819591099093B2
S11303406C0080936B008DE490E020916B00309101
S11303506C00232F3327FC0120838CE490E0209150
S11303606B0030916C00FC01208381E090E0A0E000
S1130370B0E089839A83AB83BC835FC080917100B2
S113038090917200CC01A0E0B0E09C01AD0160E46A
S113039072E48FE090E00E949E02DC01CB01209188
S11303A06700309168004091690050916A00BC0177
S11303B0CD010E94AE02DA01C9019C01AD018A851A
S11303C09B85AC85BD85BC01CD010E94AE02DA01DE
S11303D0C9018D839E83AF83B8878D819E81AF8150
S11303E0B88581309140A105B10528F019821A829F
S11303F01B821C8222C08D819E8120E031E0A901F4
S1130400481B590BCA0190936C0080936B0084E4E1
S113041090E020916B0030916C00FC01208381E01E
S113042090E0A0E0B0E089839A83AB83BC8305C0ED
S113043019821A821B821C8200008A859B859093F4
S11304406C0080936B0089812D960FB6F894DEBF03
S11304500FBECDBFDF91CF9108951F920F920090F0
S11304605F000F9211242F933F934F935F936F93E9
S11304707F938F939F93AF93BF93EF93FF93CF9308
S1130480DF93CDB7DEB781E08093700080916B007D
S113049090916C00CC01A0E0B0E0AC01BD0181E022
S11304A00E94E3000000DF91CF91FF91EF91BF9193
S11304B0AF919F918F917F916F915F914F913F91F8
S11304C02F910F9000925F000F901F9018951F922C
S11304D00F9200905F000F9211242F933F934F933C
S11304E05F936F937F938F939F93AF93BF93EF9398
S11304F0FF93CF93DF93CDB7DEB780916D009091DA
S11305006E00892B31F080916D0090916E00FC019A
S113051009950000DF91CF91FF91EF91BF91AF91C9
S11305209F918F917F916F915F914F913F912F9107
S11305300F9000925F000F901F901895DB018F932E
S11305409F930E94D002BF91AF91A29F800D911DF5
S1130550A39F900DB29F900D11240895A1E21A2E2D
S1130560AA1BBB1BFD010DC0AA1FBB1FEE1FFF1F53
S1130570A217B307E407F50720F0A21BB30BE40BA3
S1130580F50B661F771F881F991F1A9469F76095EA
S11305907095809590959B01AC01BD01CF010895A4
S11305A00E94DB02A59F900DB49F900DA49F800D27
S11305B0911D11240895A29FB001B39FC001A39F70
S11305C0700D811D1124911DB29F700D811D112488
S10B05D0911D0895F894FFCF7A
S9030000FC
