S010000042434D5F50726F6A2E7372656348
S11300000C942A000C9447000C9447000C9447006D
S11300100C9447000C9447000C9447000C94470040
S11300200C9447000C941E060C9447000C94470053
S11300300C9481040C9447000C9447000C9485079D
S11300400C9447000C9447000C9447000C94470010
S11300500C94470011241FBECFE5D8E0DEBFCDBF0E
S113006010E0A0E6B0E0E4E1F0E102C005900D92FA
S1130070A038B107D9F720E0A0E8B0E001C01D9294
S1130080A73AB207E1F70E9482020C9408080C9484
S11300900000CF93DF931F92CDB7DEB789838981A8
S11300A0882F90E080329105C1F0813291051CF4D3
S11300B0409741F033C080349105D1F080389105E8
S11300C011F12CC04FEF60E181E00E94CF0240E0CB
S11300D060E181E00E947B0321C04FEF60E281E098
S11300E00E94CF0240E060E281E00E947B0316C0E0
S11300F04FEF60E481E00E94CF0240E060E481E0E1
S11301000E947B030BC04FEF60E881E00E94CF02A6
S113011040E060E881E00E947B03000000000F9053
S1130120DF91CF910895CF93DF931F92CDB7DEB7C0
S113013089838981882F90E08032910591F0813202
S113014091051CF4409741F01BC08034910571F077
S11301508038910581F014C060E181E00E941A04A6
S11301600FC060E281E00E941A040AC060E481E0EA
S11301700E941A0405C060E881E00E941A0400008D
S113018000000F90DF91CF910895CF93DF9300D0BB
S11301901F92CDB7DEB79B838A83198281E4809353
S11301A0630010928600109287008A819B81892BBC
S11301B041F180916400882F90E08130910531F005
S11301C08230910589F0892B41F01DC08A819B8181
S11301D0909366008093650016C08A819B819093FA
S11301E06800809367000FC08A819B8190936600AA
S11301F0809365008A819B81909368008093670057
S113020002C089E0898380918F00882F90E081303B
S1130210910569F08230910561F0892B09F00AC0DB
S11302200E94580680E691E00E94720703C0000015
S113023001C0000089810F900F900F90DF91CF9142
S11302400895CF93DF931F92CDB7DEB781E0898302
S11302501092810010928000109285001092840008
S1130260109286001092870010928B0010928A00E0
S1130270109289001092880010928C0010928D00C8
S113028081E08093600081E08093610081E080934D
S1130290620080918F00882F90E08130910531F0C9
S11302A08230910529F0892B29F005C0000003C094
S11302B0000001C0000089810F90DF91CF91089563
S11302C0CF93DF93CDB7DEB7109261000000DF91CA
S11302D0CF910895CF93DF9300D000D01F92CDB774
S11302E0DEB79B838A837D836C8319828091870028
S11302F0882361F58A819B81892B29F18C819D81D9
S1130300893E9340E8F410928C008C819D819093F7
S11303108B0080938A008A819B81909389008093CB
S1130320880081E08093870010928E0010928300F1
S1130330109282001092610081E08093620008C0F4
S113034086E0898305C088E0898302C083E08983CD
S113035089810F900F900F900F900F90DF91CF91A4
S11303600895CF93DF93CDB7DEB7809187008130B6
S113037009F096C080916100882309F091C081E062
S11303808093610080918E00882F90E081309105E8
S1130390A1F0823091051CF4892B41F081C0823098
S11303A0910579F1039709F46FC07AC081E40E9442
S11303B0540281E080938E0073C08091620081308A
S11303C051F480918A0090918B000E94540282E043
S11303D08093620062C080918200909183000297B2
S11303E009F05BC080918A0090918B00892F992736
S11303F00E94540281E08093620082E080938E0028
S11304004CC020918A0030918B00809182009091A1
S113041083008217930748F5209188003091890062
S11304208091820090918300820F931FFC01808150
S11304300E945402809182009091830001969093CF
S113044083008093820040918C0020918800309139
S113045089008091820090918300820F931FFC0198
S11304608081840F80938C001AC020918A0030917F
S11304708B0080918200909183002817390779F4CA
S113048083E080938E000BC080918C000E94540204
S1130490109287000E94210103C0000001C00000E7
S11304A00000DF91CF910895CF93DF9300D0CDB7B3
S11304B0DEB78A83198280918F00882F90E0813083
S11304C0910561F08230910559F0892B21F48A81DC
S11304D00E94540706C081E0898303C0000001C064
S11304E0000089810F900F90DF91CF910895CF93F1
S11304F0DF93CDB7DEB780E10E9493000000DF9167
S1130500CF910895CF93DF93CDB7DEB780E10E94FA
S1130510490087E792E00E94C5000E9465046AE0F2
S113052070E089E690E00E946A010E94B101FDCF6B
S1130530CF93DF9300D0CDB7DEB789836A838981F7
S1130540882F90E08130910591F0823091051CF460
S1130550892B39F01EC08230910579F0039799F008
S113056018C08BE390E02A81FC01208312C088E349
S113057090E02A81FC0120830CC085E390E02A816D
S1130580FC01208306C082E390E02A81FC012083E1
S1130590000000000F900F90DF91CF910895CF934A
S11305A0DF9300D01F92CDB7DEB789836A834B8374
S11305B08981882F90E08130910581F18230910505
S11305C01CF4892B49F090C08230910509F448C08D
S11305D0039709F467C088C08B81882F90E0009747
S11305E021F08F3F910571F07FC08AE390E02AE308
S11305F030E0F9012081322F2A8120952323FC0148
S113060020830BC08AE390E02AE330E0F9013081D3
S11306102A81232BFC012083000066C08B81882F54
S113062090E0009721F08F3F910571F05DC087E362
S113063090E027E330E0F9012081322F2A812095D0
S11306402323FC0120830BC087E390E027E330E001
S1130650F90130812A81232BFC012083000044C04E
S11306608B81882F90E0009721F08F3F910571F0E6
S11306703BC084E390E024E330E0F9012081322F91
S11306802A8120952323FC0120830BC084E390E07E
S113069024E330E0F90130812A81232BFC012083FB
S11306A0000022C08B81882F90E0009721F08F3FBB
S11306B0910571F018C081E390E021E330E0F90185
S11306C02081322F2A8120952323FC0120830BC013
S11306D081E390E021E330E0F90130812A81232B8A
S11306E0FC0120830000000000000F900F900F9089
S11306F0DF91CF910895CF93DF9300D01F92CDB7B0
S1130700DEB789836A834B838B81882F90E00097BF
S113071009F442C0019709F086C08981882F90E0CE
S113072081309105B9F0823091051CF4892B39F0A0
S11307307AC082309105C9F0039711F174C08BE33C
S113074090E02BE330E0F90130812A81232BFC0176
S1130750208321C088E390E028E330E0F901308170
S11307602A81232BFC01208316C085E390E025E336
S113077030E0F90130812A81232BFC0120830BC056
S113078082E390E022E330E0F90130812A81232BD7
S1130790FC012083000047C08981882F90E08130CC
S11307A09105C9F0823091051CF4892B39F03AC0C7
S11307B082309105E9F0039741F134C08BE390E076
S11307C02BE330E0F9012081322F2A812095232365
S11307D0FC01208327C088E390E028E330E0F9019E
S11307E02081322F2A8120952323FC0120831AC0E3
S11307F085E390E025E330E0F9012081322F2A815E
S113080020952323FC0120830DC082E390E022E3A2
S113081030E0F9012081322F2A8120952323FC0125
S113082020830000000000000F900F900F90DF91D4
S1130830CF910895CF93DF9300D0CDB7DEB78983EE
S11308406A838981882F90E081309105B9F08230E4
S113085091051CF4892B39F032C082309105C9F01E
S1130860039711F12CC08BE390E02BE330E0F90106
S113087030812A812327FC01208321C088E390E072
S113088028E330E0F90130812A812327FC01208309
S113089016C085E390E025E330E0F90130812A8138
S11308A02327FC0120830BC082E390E022E330E0A5
S11308B0F90130812A812327FC01208300000000F4
S11308C00F900F90DF91CF910895CF93DF93CDB721
S11308D0DEB78FE590E02FE530E0F9012081206854
S11308E0FC0120830000DF91CF910895CF93DF9323
S11308F0CDB7DEB78FE290E0FC018081DF91CF912C
S113090008951F920F9200905F000F9211242F936D
S11309103F934F935F936F937F938F939F93AF9383
S1130920BF93EF93FF93CF93DF93CDB7DEB70E94CE
S113093076048093960080919600682F80E00E9450
S113094098028091940090919500892B51F48091A4
S113095096008093A00081E090E0909395008093AE
S1130960940080919600882F90E0A0E0B0E08093FE
S1130970900090939100A0939200B0939300000094
S1130980DF91CF91FF91EF91BF91AF919F918F91A3
S11309907F916F915F914F913F912F910F900092B2
S11309A05F000F901F901895CF93DF93CDB7DEB7FC
S11309B02D970FB6F894DEBF0FBECDBF89874A8747
S11309C05B876C877D8719821A821B821C828985CA
S11309D0882F90E08130910509F461C0823091053F
S11309E009F4BDC0892B09F014C18091A300909132
S11309F0A400CC01A0E0B0E09C01AD0160E472E48D
S1130A008FE090E00E94BC07DC01CB0120919700AD
S1130A10309198004091990050919A00BC01CD0109
S1130A200E94CC07DA01C9019C01AD018A859B852E
S1130A30AC85BD85BC01CD010E94CC07DA01C9019A
S1130A408D839E83AF83B8878D819E81AF81B88566
S1130A5081309140A105B10528F019821A821B82C8
S1130A601C82DCC08D819E8120E031E0A901481BFD
S1130A70590BCA0190939C0080939B0082E590E0FF
S1130A8020919B0030919C00FC01208381E090E048
S1130A90A0E0B0E089839A83AB83BC83BFC080911C
S1130AA0A5009091A600CC01A0E0B0E09C01AD01AE
S1130AB060E472E48FE090E00E94BC07DC01CB01AB
S1130AC020919700309198004091990050919A009C
S1130AD0BC01CD010E94CC07DA01C9019C01AD0122
S1130AE08A859B85AC85BD85BC01CD010E94CC0760
S1130AF0DA01C9018D839E83AF83B8878D819E817E
S1130B00AF81B8850197A140B10528F019821A82F6
S1130B101B821C8283C08D819E8191958195910950
S1130B2090939C0080939B008DE490E020919B0027
S1130B3030919C00232F3327FC0120838CE490E028
S1130B4020919B0030919C00FC01208381E090E087
S1130B50A0E0B0E089839A83AB83BC835FC08091BB
S1130B60A1009091A200CC01A0E0B0E09C01AD01F5
S1130B7060E472E48FE090E00E94BC07DC01CB01EA
S1130B8020919700309198004091990050919A00DB
S1130B90BC01CD010E94CC07DA01C9019C01AD0161
S1130BA08A859B85AC85BD85BC01CD010E94CC079F
S1130BB0DA01C9018D839E83AF83B8878D819E81BD
S1130BC0AF81B88581309140A105B10528F0198223
S1130BD01A821B821C8222C08D819E8120E031E01A
S1130BE0A901481B590BCA0190939C0080939B0058
S1130BF084E490E020919B0030919C00FC012083D0
S1130C0081E090E0A0E0B0E089839A83AB83BC8369
S1130C1005C019821A821B821C8200008A859B856A
S1130C2090939C0080939B0089812D960FB6F89435
S1130C30DEBF0FBECDBFDF91CF9108951F920F92FB
S1130C4000905F000F9211242F933F934F935F9373
S1130C506F937F938F939F93AF93BF93EF93FF9380
S1130C60CF93DF93CDB7DEB781E080939F0080916F
S1130C709B0090919C00CC01A0E0B0E0AC01BD01D0
S1130C8081E00E94D4040000DF91CF91FF91EF91A5
S1130C90BF91AF919F918F917F916F915F914F9190
S1130CA03F912F910F9000925F000F901F90189525
S1130CB0EF92FF920F931F93CF93DF9300D000D056
S1130CC0CDB7DEB781E0898380E88A8320917C00F8
S1130CD030917D0040917E0050917F00809173009F
S1130CE090917400A0917500B0917600880F991FBF
S1130CF0AA1FBB1F880F991FAA1FBB1F880F991F0C
S1130D00AA1FBB1F880F991FAA1FBB1F7C018D013F
S1130D10CA01B901A80197010E94CC07DA01C901EF
S1130D2001979C838B838A8180688A838A8182600D
S1130D308A838A8184608A838AE290E02AE230E0AE
S1130D40F90120812B7FFC01208380917700882F7B
S1130D5090E0009761F00197A1F48AE290E02AE222
S1130D6030E0F90120812061FC0120830CC08AE27B
S1130D7090E02AE230E0F90120812F7EFC012083FB
S1130D8002C01982000080917800882F90E00097BB
S1130D9061F00197A1F48AE290E02AE230E0F901DF
S1130DA020812860FC0120830CC08AE290E02AE2C2
S1130DB030E0F9012081277FFC01208302C01982E1
S1130DC0000080917900882F90E08130910561F0D6
S1130DD08230910581F0892BA9F48A818F7E8A83E0
S1130DE08A818F7D8A8310C08A818F7E8A838A81DB
S1130DF080628A8309C08A8180618A838A81806251
S1130E008A8302C01982000080917A00882F90E0C2
S1130E108130910519F0029729F008C08A81877FF3
S1130E208A8306C08A8188608A8302C0198200008E
S1130E3080917B00882F90E0009761F00197A1F4E6
S1130E408AE290E02AE230E0F90120812068FC0186
S1130E5020830CC08AE290E02AE230E0F90120818C
S1130E602F77FC01208302C01982000080E490E007
S1130E702A81FC01208389E290E02B81FC012083FC
S1130E8080E490E02B813C81232F3327FC012083D5
S1130E9089810F900F900F900F90DF91CF911F9148
S1130EA00F91FF90EF900895CF93DF931F92CDB7EA
S1130EB0DEB7898300008BE290E0FC01808182959B
S1130EC086958770882F90E081709927892B99F3F4
S1130ED08CE290E02981FC01208381E00F90DF9176
S1130EE0CF910895CF93DF9300D0CDB7DEB79A8327
S1130EF0898389819A8190939E0080939D0000004C
S1130F000F900F90DF91CF9108951F920F92009050
S1130F105F000F9211242F933F934F935F936F932E
S1130F207F938F939F93AF93BF93EF93FF93CF934D
S1130F30DF93CDB7DEB780919D0090919E00892B01
S1130F4031F080919D0090919E00FC010995000074
S1130F50DF91CF91FF91EF91BF91AF919F918F91CD
S1130F607F916F915F914F913F912F910F900092DC
S1130F705F000F901F901895DB018F939F930E9441
S1130F80EE07BF91AF91A29F800D911DA39F900D7D
S1130F90B29F900D11240895A1E21A2EAA1BBB1B27
S1130FA0FD010DC0AA1FBB1FEE1FFF1FA217B30731
S1130FB0E407F50720F0A21BB30BE40BF50B661F47
S1130FC0771F881F991F1A9469F76095709580950B
S1130FD090959B01AC01BD01CF0108950E94F907D2
S1130FE0A59F900DB49F900DA49F800D911D112479
S1130FF00895A29FB001B39FC001A39F700D811DEE
S11310001124911DB29F700D811D1124911D08950D
S1071010F894FFCF7E
S11310140101014100000000000202020202020276
S113102402020280250000010100010000127A007E
S9030000FC
